:020000040800F2
:10000000F007002079410008C1020008C30200087F
:10001000C7020008CB020008CF0200080000000061
:10002000000000000000000000000000D3020008F3
:10003000D502000800000000D7020008D90200081D
:100040009341000893410008934100089341000840
:100050009341000893410008934100089341000830
:100060009341000893410008934100089341000820
:100070009341000893410008934100089341000810
:100080009341000893410008934100089341000800
:1000900093410008934100089341000893410008F0
:1000A00093410008934100089341000893410008E0
:1000B000934100085D020008934100089341000845
:1000C00093410008934100089341000893410008C0
:1000D00093410008EF400008934100089341000855
:1000E00093410008934100089341000893410008A0
:1000F0009341000893410008934100089341000890
:10010000934100089341000893410008934100087F
:10011000934100089341000893410008934100086F
:10012000934100089341000893410008934100085F
:1001300000F002F800F042F80AA090E8000C8244B7
:100140008344AAF10107DA4501D100F037F8AFF294
:10015000090EBAE80F0013F0010F18BFFB1A43F0A5
:10016000010318474C8900006C890000103A24BF35
:1001700078C878C1FAD8520724BF30C830C144BF0C
:1001800004680C607047000000230024002500264E
:10019000103A28BF78C1FBD8520728BF30C148BFEA
:1001A0000B607047642905F06185782905F09A8510
:1001B000002070471FB51FBD10B510BD05F0EEFF44
:1001C0001146FFF7F7FF00F009F806F00CF803B44A
:1001D000FFF7F2FF03BC03F02FFF00006425314856
:1001E000B0FBF5F0441E03F0BDFE4FF4A06003F039
:1001F000E3FF4FF4E13003F02EFF00F05FF903F06E
:100200001DFA03F0EDFB03F071FD002026490860A4
:1002100042F2107003F0E3FE0DE0C82003F0DFFEB1
:100220002148006808B9012000E000201E4908604C
:10023000C82003F0D4FE02F0E7F90028EDD1012038
:1002400019490860A0B24FF4347100F08EF941F6FC
:100250001F41632000F05CF900BFFEE710B50121EB
:10026000124805F090FAE0B10121104805F09CFA1F
:1002700002E0022003F0B3FE0D4A0E490E4802F0E0
:100280000EFA0028F5D10B48006803F050FD0B4929
:1002900008600548006808B9012000E00020024914
:1002A000086010BDA0860100A001214200040040AA
:1002B0000800002004000020000000200C000020A6
:1002C000704700BFFEE700BFFEE700BFFEE700BFCC
:1002D000FEE7704770477047704700000CB500207C
:1002E000019000906C48006840F480306A490860D2
:1002F00000BF6948006800F4003000900198401C7D
:100300000190009818B90198B0F5A06FF1D162483A
:10031000006800F4003010B10120009001E00020DE
:1003200000900098012843D15C48006840F010001C
:100330005A4908600846006820F003000860084633
:10034000006840F002000860534840685249486025
:100350000846406848600846406840F4806048604D
:100360000846406820F47C1048600846406840F425
:10037000E81048600846006840F08070086000BFE0
:100380004548006800F000700028F9D042484068F5
:1003900020F00300404948600846406840F00200F1
:1003A000486000BF3C48406800F00C000828F9D1C4
:1003B0000CBD10B5FFF792FF10BD10B536480068B0
:1003C00040F001003449086008464068344908405C
:1003D0003149486008460068324908402E490860A3
:1003E0000846006820F4802008600846406820F431
:1003F000FE0048604FF41F008860FFF7DAFF4FF0FF
:1004000000602949086010BD10B5002100200022BD
:10041000214B5B6803F00C0121B1042906D00829A7
:1004200028D107E0214B224C236027E01F4B204CB2
:10043000236023E0184B5B6803F47010164B5B6875
:1004400003F48032022303EB904022B9194B43435B
:10045000174C23600DE0104B5B6803F4003323B1AD
:10046000144B4343124C236003E0104B4343104CA6
:10047000236003E00D4B0E4C236000BF00BF064B12
:100480005B68C3F303130C4CE15C094B1B68CB4066
:10049000074C236010BD0000001002400020024005
:1004A0000000FFF8FFFFF6FE08ED00E000127A0002
:1004B0001000002000093D001400002008B50121B3
:1004C000142004F003FA4FF40050ADF8000010209F
:1004D0008DF8030003208DF8020069460A4803F0F6
:1004E00039FF4FF40051084803F0E1FF4FF48070EA
:1004F000ADF800006946054803F02CFF4FF4807109
:10050000024803F0D4FF08BD00100140000801407C
:100510007FB505460C460121022004F0E4F9ADF850
:100520000850ADF804400020ADF80A00ADF8060010
:1005300001A9414804F002FB012211463E4804F0A3
:1005400074FE1D208DF8000000208DF801000320AE
:100550008DF8020001208DF80300684603F031FE9B
:100560000121354804F046FE7FBD30B589B005460F
:100570000C460121042004F0B6F90121092004F001
:10058000A5F94FF47070ADF8200018208DF8230005
:1005900003208DF8220008A9284803F0DBFEADF8FF
:1005A0001850ADF814400020ADF81A00ADF8160050
:1005B00005A9234804F0C2FA6020ADF80400012028
:1005C000ADF806000020ADF80C0001A91C4804F0AD
:1005D000F2FA08211A4804F03DFF01A9184804F076
:1005E0002CFB0821164804F03EFF01A9144804F032
:1005F00071FB0821124804F043FF01A9104804F0E0
:10060000B4FB08210E4804F044FF00210C4805F01B
:1006100089F800210A4805F087F80021084805F00C
:1006200085F80021064805F083F80121044804F00C
:10063000E1FD09B030BD000000040040000C0140A5
:100640000008004038B50446F74890F82400C0B1CF
:1006500014B10220009001E000200090F24A1268DC
:10066000D17BF14A526810786B46012203F0FDFA03
:1006700010B14FF0FF3038BD9DF80010EA484174CA
:1006800023E0E948807A10B94FF0FF30F3E724B156
:10069000E548407C08B10020EDE714B1012000904E
:1006A00001E000200090E04A1268D17BDE4A5268E7
:1006B00010786B46012203F0D8FA10B14FF0FF30EA
:1006C000D9E79DF80010D84841740020D3E738B529
:1006D00000241FE0D4480068C07AA04204D0D24869
:1006E0000068407DA04200D112E0CF4949680878F7
:1006F0006B460122214603F0D6F910B14FF0FF30CE
:1007000038BD9DF800202146C8A005F07BFA00BF47
:10071000601CC4B2C44840680079A042DADC002002
:10072000EEE770B504460D46BF480068C07AA042A7
:1007300004D0BD480068407DA04202D14FF0FF3098
:1007400070BDB94840680079A04202DC4FF0FF302C
:10075000F6E7B549496808782B460122214603F09F
:10076000A2F9EDE738B50446AF4890F82300A0425F
:1007700001D1002038BD14B13020009001E00020EC
:100780000090A948807C20B19DF8000040F0020054
:100790000090A54890F8220020B19DF8000040F09C
:1007A00080000090A04A1268117D9F4A526810781C
:1007B0006B46012203F059FA10B14FF0FF30D9E730
:1007C000994880F823400020D4E738B5044604F067
:1007D000700010B10120009005E014B100200090DD
:1007E00001E040200090904A1268917C8E4A526845
:1007F00010786B46012203F038FA20B100218A48B4
:100800008172481E38BD9DF8000020F040018648E6
:1008100001730020009004F0400020B99DF8000012
:1008200040F00400009004F0200020B99DF8000082
:1008300040F00200009004F0100020B99DF8000084
:1008400040F00100009004F0080020B99DF800007D
:1008500040F038000090744A1268D17C724A5268A5
:1008600010786B46012203F000FA20B100216E4897
:100870008172481EC6E724B1082C02D00020FFF781
:1008800071FF6948847200210175322003F0A7FBD3
:100890000020B7E738B504466348807CA04201D108
:1008A000002038BD002C46D05F4A126811795E4A9C
:1008B000526810786B46012203F0F5F810B14FF042
:1008C000FF30EEE79DF8000020F020000090564A2F
:1008D00012681179544A526810786B46012203F06D
:1008E000C4F910B14FF0FF30DBE7032003F077FBD2
:1008F000022000904C4890F8220020B19DF80000A2
:1009000040F080000090484890F8230020B19DF806
:10091000000040F030000090434A1268117D424AC6
:10092000526810786B46012203F09FF9002851D0DD
:100930004FF0FF30B5E73C4A126811793A4A5268E5
:1009400010786B46012203F0AEF810B14FF0FF3083
:10095000A7E73548807A00F0010028B19DF8000033
:1009600040F02000009004E09DF8000020F02000FE
:1009700000902D4A126811792B4A526810786B4604
:10098000012203F072F910B14FF0FF3089E7032024
:1009900003F025FB244890F8220010B1802000903D
:1009A00001E000200090204890F8230020B19DF83D
:1009B000000040F0300000901B4A1268117D1A4A76
:1009C000526810786B46012203F04FF910B14FF0D6
:1009D000FF3066E714488474002062E708B51248C7
:1009E000807A10B94FF0FF3008BD002000900E4A09
:1009F0001268D17B0C4A526810786B46012203F0D2
:100A000034F910B14FF0FF30EEE7074A1268517920
:100A1000054A526810786B46012203F026F968B146
:100A20004FF0FF30E0E70000240000202523357858
:100A30003A20252335780D0A00000000F84A126894
:100A40001179F74A526810786B46012203F00DF9CC
:100A500010B14FF0FF30C7E7F14890F824000028AC
:100A600053D00C200090EE4A12681179EC4A52687B
:100A700010786B46012203F0F8F810B14FF0FF3008
:100A8000B2E7322003F0ABFAC0200090E448807A4D
:100A900000F0010020B19DF8000040F0200000901F
:100AA000DF4A12681179DE4A526810786B460122DB
:100AB00003F0DBF810B14FF0FF3095E7D848407CE9
:100AC00010B10220009001E000200090D44A12688A
:100AD000D17BD34A526810786B46012203F0C5F8E7
:100AE00010B14FF0FF307FE700200090CC4A126831
:100AF0005179CB4A526810786B46012203F0B5F861
:100B0000002855D04FF0FF306EE704200090C44A13
:100B100012681179C24A526810786B46012203F0BC
:100B2000A4F810B14FF0FF305EE7BD48807C20B9DB
:100B3000BB48807A00F0010010B94020009001E02D
:100B400060200090B64A12681179B54A5268107850
:100B50006B46012203F089F810B14FF0FF3043E7F4
:100B6000322003F03CFAAE48407C10B101200090E6
:100B700001E000200090AA4A1268D17BA84A52687E
:100B800010786B46012203F070F810B14FF0FF307F
:100B90002AE7A34A12685179A14A52681078A04BFB
:100BA0001033012203F061F810B14FF0FF301BE762
:100BB000002019E770B50446002624F00104984887
:100BC00090F8240008B1002070BD9548807A10B9D3
:100BD0004FF0FF30F8E79248057C807A204090493A
:100BE00008740846007CA04202D04FF0FF3600E0B7
:100BF000002614B98A48007D18B10120FFF722FDB4
:100C000002E00020FFF71EFD3CB1FFF7E7FE20B138
:100C1000834805744FF0FF30D6E73046D4E738B547
:100C200004467F48807A10B94FF0FF3038BDBC2CA5
:100C300002DB0120009015E0622C02DB0220009014
:100C400010E02A2C02DB032000900BE0142C02DBC6
:100C50000420009006E00A2C02DB0520009001E051
:100C6000062000906E48C07A9DF80010884201D19D
:100C70000020DBE76A4A12689178694A5268107866
:100C80006B46012202F0F1FF10B14FF0FF30CDE7CB
:100C90009DF800106248C1720020C7E738B50446CD
:100CA000282C02DD4FF0FF3038BDDCB90020FFF703
:100CB00059FD00208DF8000007208DF80100584AEA
:100CC0001268917C564A526810786B46022202F0F4
:100CD000CCFF10B14FF0FF30E6E70021504801751E
:100CE0000020E1E70120FFF73DFD20208DF8000006
:100CF000012C06D100208DF801000520FFF78FFFA1
:100D000017E0052C06DC01208DF801000520FFF717
:100D100086FF0EE0142C06DC02208DF801000A206C
:100D2000FFF77DFF05E003208DF801001420FFF799
:100D300076FF9DF80100072101EB8010C0B28DF80D
:100D40000100374A1268917C354A526810786B4628
:100D5000022202F08AFF10B14FF0FF30A4E7082111
:100D60002F48817200210173012101750020FFF7D6
:100D700021FF002098E738B504462948807A10B949
:100D80004FF0FF3038BD264890F8240010B14FF0E6
:100D9000FF30F7E72248007D50B134B1282C04DC45
:100DA000E0B2FFF77BFF0020ECE70020FFF776FFC3
:100DB000042C01DA042404E0B4F57A7F01DD4FF459
:100DC0007A744FF47A7090FBF4F0401EC0B2009039
:100DD000134A12685178124A526810786B46012201
:100DE00002F043FF10B14FF0FF30CBE79DF8000059
:100DF000401C4FF47A7191FBF0F081B20848C18138
:100E00000146C9894810FFF70AFF0020BAE738B544
:100E100004460348807A28B94FF0FF3038BD0000FF
:100E200024000020022C06D0042C07D0082C08D067
:100E3000102C0CD108E0002000900BE0082000905E
:100E400008E01020009005E01820009002E04FF02C
:100E5000FF30E3E700BFF948407A9DF80010B0EB9F
:100E6000E10F01D10020D9E7F44A1268D179F34AA1
:100E7000526810786B46012202F0F7FE10B14FF075
:100E8000FF30CBE79DF80000C110EC484172002014
:100E9000C4E738B50446E948807A10B94FF0FF300E
:100EA00038BDFA2C09D0B4F5FA7F09D0B4F57A7FB1
:100EB00009D0B4F5FA6F0CD108E0002000900BE0E7
:100EC0000820009008E01020009005E01820009015
:100ED00002E04FF0FF30E3E700BFD848007A9DF80A
:100EE0000010B0EBE10F01D10020D9E7D34A12681E
:100EF0009179D24A526810786B46012202F0B5FE11
:100F000010B14FF0FF30CBE79DF80000C010CB4987
:100F100008720020C4E71CB580208DF80000C74A85
:100F20001268917CC54A526810786B46012202F023
:100F30009CFE10B14FF0FF301CBD642003F04FF851
:100F400000208DF80000BD4A1268917CBB4A5268AF
:100F500010786B46012202F088FE10B14FF0FF308E
:100F6000EAE7B64A1268917DB44A526810786B4637
:100F7000062202F098FD10B14FF0FF30DCE79DF83B
:100F80000500C007400F9DF8031001F0010140EA81
:100F900041009DF8011001F0010140EA010494B103
:100FA000012C03D10121A548C17431E0022C03D1E9
:100FB0000021A248C1742BE02146A1A004F022FE2A
:100FC0004FF0FF30B8E79D4A1268D1789B4A5268CB
:100FD00010786B46012202F066FD10B14FF0FF3031
:100FE000AAE79DF8000000F00F042CB99E4804F019
:100FF00009FE4FF0FF309FE7042C06D19BA004F0C0
:1010000001FE01218D48C17402E000218B48C174AA
:10101000FF218A488172FF2088490872FF21874892
:101020004172C1724FF6FF71C181FF210174817459
:101030000121017380F82210002180F823104175EE
:1010400001751630016041608160163880F8241007
:1010500080F82510C1844FF4FA60FFF71AFF10B131
:101060004FF0FF3068E70220FFF7D1FE10B14FF0DC
:10107000FF3061E72A20FFF7D2FD10B14FF0FF30BB
:101080005AE73220FFF777FE10B14FF0FF3053E7F9
:101090000020FFF78FFD10B14FF0FF304CE700202C
:1010A000FFF7F8FB10B14FF0FF3045E70020FFF7E6
:1010B0008CFB002040E770477CB504460D465F4836
:1010C000807A00F0700010B94FF0FF307CBD5B4AB1
:1010D0001268117B594A526810786B46062202F05A
:1010E000E2FC10B14FF0FF30F0E79DF801009DF8F1
:1010F000001040EA012000B220809DF803009DF816
:10110000021040EA012000B260809DF805009DF8C1
:10111000041040EA012000B2A08015B12846FFF774
:10112000CAFF0020D2E77CB504460D464348807ACA
:1011300000F0080010B94FF0FF307CBD3F4A126844
:10114000517B3E4A526810786B46062202F0ABFC97
:1011500010B14FF0FF30F0E79DF801009DF800104E
:1011600040EA012000B220809DF803009DF80210A3
:1011700040EA012000B260809DF805009DF804104F
:1011800040EA012000B2A08015B12846FFF793FF86
:101190000020D2E72DE9FE4F05460C462748807A0D
:1011A00018B94FF0FF30BDE8FE8F244A1268917BDA
:1011B000224A5268107802AB022202F074FC10B18D
:1011C0004FF0FF30EFE79DF809009DF8081040EA66
:1011D000012006B214B12046FFF76DFF1749496898
:1011E000C88806F047FB154901904968B1F9080025
:1011F00006F028FB8346304606F024FB5946009053
:1012000006F088FC8246019906F0EAF981461F49FA
:1012100006F078F980464FF08F4106F073FB0746E1
:1012200006F0D4FA28600020BDE710B588B0044667
:101230001CB94FF0FF3008B010BD29E02400002099
:10124000556E737570706F7274656420736F667419
:10125000776172652070726F647563742072657651
:101260002025642E0A000000608A000848616C6630
:101270002073656E73697469766974792070617220
:101280007420666F756E642E0A00000000000C4228
:10129000206830B9606820B9A06810B9002008B093
:1012A00010BDFA494968087806AB0322114602F0DE
:1012B000FAFB10B14FF0FF30F1E79DF8180008215C
:1012C00001EB201000F00F00ADF800009DF81900B0
:1012D00001EB201000F00F00ADF802009DF81A009D
:1012E00001EB201000F00F00ADF804002068410071
:1012F000BDF90000403091FBF0F000B2ADF81000F5
:1013000060684100BDF90200403091FBF0F000B28E
:10131000ADF81200A0684100BDF90400403091FB17
:10132000F0F000B2ADF81400D8494968087806AB6F
:101330000622114602F0B7FB10B14FF0FF30AEE7C6
:101340009DF819009DF8181040EA012000B2ADF890
:1013500008009DF81B009DF81A1040EA012000B219
:10136000ADF80A009DF81D009DF81C1040EA012010
:1013700000B2ADF80C00BDF81000BDF8081008442C
:1013800000B2ADF81000BDF81200BDF80A10084414
:1013900000B2ADF81200BDF81400BDF80C100844FE
:1013A00000B2ADF81400BDF81000000A8DF8180066
:1013B000BDF81000C0B28DF81900BDF81200000A87
:1013C0008DF81A00BDF81200C0B28DF81B00BDF8F0
:1013D0001400000A8DF81C00BDF81400C0B28DF88E
:1013E0001D00AA494968087806AB0622114602F09A
:1013F0003CFC10B14FF0FF3051E700204FE70146B1
:10140000A248007A30B1012807D0022809D0032869
:101410000FD10AE0FA2008800EE04FF4FA7008803D
:101420000AE04FF47A70088006E04FF4FA60088012
:1014300002E00020088000BF00BF00207047014686
:101440009248407A30B1012807D0022808D00328FA
:101450000CD108E0022008700BE00420087008E0BE
:101460000820087005E01020087002E04FF0FF30FF
:10147000704700BF8548C07C18B108784006000E50
:1014800008700020F4E701468048C07A082817D287
:10149000DFE800F01704070A0D101318BC200880BD
:1014A00013E06220088010E02A2008800DE014205C
:1014B00008800AE00A20088007E00520088004E090
:1014C00000BF00BF0020088000BF00BF00207047A1
:1014D00001466E4890F8240010B14FF0FF3070477D
:1014E0006A48C08908800020F9E70146002008808A
:1014F000401E704701464FF0FF3070470146634879
:10150000007A30B1012807D0022808D003280CD176
:1015100008E05F4808600BE05E48086008E05E484D
:10152000086005E05D48086002E04FF0FF3070475A
:1015300000BF0020FBE701465448407A30B1012843
:1015400008D002280AD0032810D10BE04FF48040C5
:1015500008800EE041F69C7008800AE04FF480504D
:10156000088006E04FF40060088002E04FF0FF3092
:10157000704700BF4548C07C10B108884010088003
:101580000020F5E701464148007C087000207047C4
:1015900001463E48807A10B10120087001E0002029
:1015A00008700020704738B504463848807A10B972
:1015B0004FF0FF3038BD354A1268117C334A52680B
:1015C00010786B46022202F06EFA10B14FF0FF3035
:1015D000F0E79DF801009DF8001040EA012000B2FC
:1015E00020800020E6E72DE9FE4F07468846924618
:1015F0001D46DDF830B000260024244890F8240071
:1016000010B1601EBDE8FE8F002028701F48807A50
:1016100010B94FF0FF30F5E71C48007C10B94FF0CF
:10162000FF30EFE71948007C00F0400008B1B01C23
:10163000C6B21648007C00F0200008B1B01CC6B24B
:101640001248007C00F0100008B1B01CC6B20F4870
:10165000007C00F0080008B1B01DC6B20B4A126849
:10166000917A0A4A526810786B46022202F01BFAFD
:1016700010B14FF0FF30C5E79DF801009DF8001054
:1016800040EA0129B1450BDA0020BBE72400002025
:10169000000003430000834233330342333383416A
:1016A000FC4840684088B9EB600F17DDF94A1268C2
:1016B000517CF84A526810786B46012202F0F3F927
:1016C00010B14FF0FF309DE79DF8000000F01000D2
:1016D00020B1FFF783F96FF0010093E75046FFF761
:1016E000EAFCEC4A1268D17AEA4A526810786B46F2
:1016F000324602F0D8F910B14FF0FF3082E799FB83
:10170000F6F0401E8BF8000000202870B4422AD06A
:10171000E048007C00F0080028B3601C1DF80000C1
:101720001DF8041040EA012000B2A8F80000E01CF7
:101730001DF80010A01C1DF8000041EA002000B2B6
:10174000A8F80200601D1DF80010201D1DF8000003
:1017500041EA002000B2A8F80400287840F0080010
:101760002870A01D84B2B44213D0CA48007C00F097
:10177000400070B1601C1DF800001DF8041040EA24
:10178000012000B23880287840F040002870A01C6A
:1017900084B2B44213D0BF48007C00F0200070B186
:1017A000601C1DF800001DF8041040EA012000B282
:1017B0007880287840F020002870A01C84B2B442C1
:1017C00013D0B448007C00F0100070B1601C1DF80C
:1017D00000001DF8041040EA012000B2B88028780B
:1017E00040F010002870A01C84B200200AE7F8B571
:1017F00004460F461646A74890F8240010B94FF04B
:10180000FF30F8BDA348807A10B94FF0FF30F8E7F9
:10181000A04A1268917A9F4A526810786B46022259
:1018200002F041F910B14FF0FF30EAE79DF80100F6
:101830009DF8001040EA0125A54203DA002030702F
:10184000401EDEE7934840684088B5EB600F17DD27
:10185000904A1268517C8F4A526810786B46012278
:1018600002F021F910B14FF0FF30CAE79DF80000F7
:1018700000F0100020B1FFF7B1F86FF00100C0E7F1
:10188000E2B2844B1B68D97A824B5B6818783B467E
:1018900002F009F910B14FF0FF30B2E795FBF4F018
:1018A000401E30700020ACE701467A4880F82210D4
:1018B000002070477CB5054676494968087801AB39
:1018C00004220D2102F0EFF808B107207CBD9DF83D
:1018D0000700C0F301109DF8041001F0E00140EA98
:1018E000E1008DF800009DF80700C0F381009DF82D
:1018F000051001F0E00140EAE1008DF801009DF8DB
:10190000070000F003009DF8061001F0E00140EA36
:10191000E1008DF8020000241CE01DF8040018B955
:10192000002045F8240013E05B4845F8240006E059
:1019300055F82400594905F0E5FF45F824001DF845
:101940000400401EC0B20DF804000028F0D100BF12
:10195000601CC4B2032CE0DB0020B7E72DE9FE4F8A
:1019600006460F4600256846FFF7A4FF002442E024
:1019700056F8240057F82410A0EB010ABAF1000F22
:1019800001DB514601E0CAF10001084605F05AFFAB
:1019900083464FF08F4105F023FE80465DF824001A
:1019A000002105F0DFFE16D05DF82410404605F05A
:1019B00017FE82464FF07E5106F0ACF8814629F0C2
:1019C000004A3748416A504606F068F812D20120B2
:1019D000A04005430EE03248C169404605F05EFF75
:1019E00005D32F48016A404606F058F802D201207C
:1019F000A0400543641C032CBADB2846BDE8FE8FDB
:101A00002DE9FC5F06460F46002522494968087803
:101A100001AB03220D2102F046F810B10720BDE80A
:101A2000FC9F9DF8040000F01F008DF804009DF855
:101A3000050000F01F008DF805009DF8060000F07D
:101A40001F008DF80600002462E056F8240057F8C5
:101A50002410A0EB010BBBF1000F01DB594601E0A4
:101A6000CBF10001084605F0EDFE4FF08F410090EC
:101A700005F0B6FD814601A8005DC0B308490868BD
:101A800005F0F8FE83465946064805F0A9FD804654
:101A90000FE00000240000207B14AE3E1D5A843F5E
:101AA000187D000800B04C45FE49404605F02AFF6D
:101AB000804601A8005D401EC0B201A9085500285B
:101AC000F2D14146484605F08BFD83464FF07E51EA
:101AD00006F020F882462AF0004BF3488169584608
:101AE00005F0DCFF13D20120A04005430FE0FFE723
:101AF000ED480169484605F0D1FE05D3EA48416941
:101B0000484605F0CBFF02D20120A0400543641CEB
:101B1000032C9ADB284682E72DE9F04F87B0054673
:101B20000C46914601208DF8100000208DF8110020
:101B3000DE4A1268917CDD4A5268107804AB0222BA
:101B400002F093F820B14FF0FF3007B0BDE8F08FFE
:101B5000C82002F044FA00208DF81000D34A126821
:101B6000D17BD24A5268107804AB012202F07DF892
:101B700010B14FF0FF30E8E7CC4A12685179CB4AF8
:101B80005268107804AB012202F06FF810B14FF0E8
:101B9000FF30DAE7C54A1268917CC44A526810786F
:101BA00004AB012202F061F810B14FF0FF30CCE736
:101BB000BE4A1268D17DBD4A5268107804AB01223A
:101BC00002F053F810B14FF0FF30BEE7B74A126889
:101BD0001179B64A5268107804AB012202F045F838
:101BE00010B14FF0FF30B0E70C208DF81000AF4A75
:101BF00012681179AD4A5268107804AB012202F0E4
:101C000034F810B14FF0FF309FE70F2002F0E7F9F2
:101C1000A648806A407A8DF81000A44A126891782C
:101C2000A24A5268107804AB012202F01EF810B1EB
:101C30004FF0FF3089E79D48806A007A8DF81000E8
:101C40009A4A12685178994A5268107804AB012276
:101C500002F00BF810B14FF0FF3076E7B9F1000F4A
:101C600007D09248806A807A40F0E0008DF810003A
:101C700004E08E48806A807A8DF810008B4A1268E2
:101C800091798A4A5268107804AB012201F0EDFF85
:101C900010B14FF0FF3058E7B9F1000F07D083487B
:101CA000806AC07A40F0E0008DF8100003E07E48C2
:101CB000C07A8DF810007D4A1268D1797B4A52684B
:101CC000107804AB012201F0D0FF10B14FF0FF30CB
:101CD0003BE7B9F1000F02D0C82002F080F94020A4
:101CE0008DF81000714A12681179704A52681078A4
:101CF00004AB012201F0B9FF10B14FF0FF3024E72F
:101D000078208DF81000694A12685179674A526844
:101D1000107804AB012201F0A8FF10B14FF0FF30A2
:101D200013E76149888902F05AF900208DF8100004
:101D30005E4A126851795D4A5268107804AB0122FC
:101D400001F093FF10B14FF0FF30FEE6574A1268E2
:101D5000917A564A5268107804AB022201F0A3FE31
:101D600010B14FF0FF30F0E69DF811009DF8101013
:101D700040EA012B0C209BFBF0F0C6B20020A860CB
:101D800068602860A06060602060824665E0474A25
:101D90001268D17A454A5268107804AB0C2201F0DF
:101DA00082FE10B14FF0FF30CFE69DF811009DF894
:101DB000101040EA012000B2ADF808009DF81300B1
:101DC0009DF8121040EA012000B2ADF80A009DF81B
:101DD00015009DF8141040EA012000B2ADF80C0087
:101DE000BDF90810206808442060BDF90A10606839
:101DF00008446060BDF90C10A0680844A0609DF81C
:101E000017009DF8161040EA012000B2ADF800005E
:101E10009DF819009DF8181040EA012000B2ADF8B5
:101E200002009DF81B009DF81A1040EA012000B244
:101E3000ADF80400BDF90010286808442860BDF919
:101E40000210686808446860BDF90410A868084476
:101E5000A8600AF1010000F0FF0AB24597DB1248C2
:101E6000D0F800C02868C117090441EA10410704EE
:101E700062460023384603F0A0FE32460023CDE937
:101E8000020103F09AFE28600748D0F800C0686895
:101E9000C117090441EA104107046246002338468D
:101EA00006E0000054E3853F187D00082400002070
:101EB00003F083FE32460023CDE9020103F07DFEEC
:101EC0006860FE48D0F800C0A868C117090441EA5C
:101ED0001041070462460023384603F06EFE324686
:101EE0000023CDE9020103F068FEA860F348D0F8B2
:101EF00004C02168C817000440EA11480F04624674
:101F000000233846414603F058FE32460023CDE90F
:101F1000020103F052FE2060E848D0F804C0606877
:101F2000C117090441EA10410704624600233846FC
:101F300003F043FE32460023CDE9020103F03DFEEB
:101F40006060DE48D0F804C0A068C117090441EA07
:101F50001041070462460023384603F02EFE324645
:101F60000023CDE9020103F028FEA060A06800284C
:101F700004DDA068A0F58030A06003E0A06800F553
:101F80008030A0600020E0E538B50446CC4890F8E9
:101F90002400A04201D1002038BD24B3C84890F8E5
:101FA000250010B94FF0FF30F6E70020FEF74AFB9E
:101FB0000020FEF76FFCC249C88CFEF7DCFE002053
:101FC0000090BF49496808786B460122232101F03F
:101FD0004CFE0121BA4880F824100120FEF732FBA4
:101FE000FEF7FCFC13E00020FEF72CFBB448007C5D
:101FF0000090B349496808786B460122232101F01B
:1020000034FE0021AE4880F82410FEF7E7FC0020E3
:10201000C2E72DE9F04F8DB083460F4602200C90A9
:10202000A74890F8240020B10020FFF7ADFF01265B
:1020300000E0002603A8FFF7E2F905A8FFF7FFF983
:1020400001A8FFF720FA02A8FFF742FA9C4890F88F
:102050000AA004A8FFF796FA002407E000223946F8
:102060005846FFF759FD00B902E0641C022CF5DB6D
:1020700000BF022C01D1002528E0002407E0012246
:1020800006A909A8FFF748FD00B902E0641C022C6C
:10209000F5DB00BF022C01D1002517E006A9384668
:1020A000FFF75CFC00F0FF0809A95846FFF7A8FC01
:1020B00000F0FF090025B9F1000F01D145F001053D
:1020C000B8F1000F01D145F0020500BFFF207C49A7
:1020D0000872FF217A484172C1724FF6FF71C181C7
:1020E000FF218172017401210173BDF80C00FEF71C
:1020F000D0FE9DF81400FEF78AFEBDF80400FEF73E
:102100008EFDBDF80800FEF736FE5046FEF75DFB7B
:102110009DF81000FEF74EFD16B10120FFF734FFC9
:1021200028460DB0BDE8F08FF8B504460D461646BA
:1021300016B94FF0FF30F8BD6148807A10B94FF002
:10214000FF30F8E720128DF80000E0B28DF80100B2
:102150009DF8010028445A4949684989884202DDAE
:102160004FF0FF30E7E7564A1268117E544A526832
:1021700010786B46022201F078FD10B14FF0FF306D
:10218000D9E7EAB24E4B1B68597D4D4B5B68187816
:10219000334601F06AFD10B14FF0FF30CBE700206D
:1021A000C9E7F8B504460D46164616B94FF0FF309C
:1021B000F8BD4348807A10B94FF0FF30F8E720129D
:1021C0008DF80000E0B28DF801009DF80100284470
:1021D0003B4949684989884202DD4FF0FF30E7E713
:1021E000374A1268117E364A526810786B460222CE
:1021F00001F03BFD10B14FF0FF30D9E7EAB2304BB0
:102200001B68597D2E4B5B681878334601F04BFCF8
:1022100010B14FF0FF30CBE70020C9E72DE9F043C4
:1022200085B005460E4690469946254890F825000B
:1022300020B14FF0FF3005B0BDE8F08316B94FF084
:10224000FF30F8E7002423E0281B102801DD1020D0
:1022500000E0281B87B2321939462046FFF764FF99
:1022600010B14FF0FF30E6E701AA39462046FFF7EC
:1022700098FF10B14FF0FF30DDE730193A4601A961
:1022800003F0F8FD10B16FF00100D4E7E01984B25B
:10229000AC42D9DB4FEA28208DF8000008F0FF009F
:1022A0008DF80100064A1268917E054A526810783E
:1022B0006B46022201F0D9FC38B103E0187D00081A
:1022C000240000204FF0FF30B5E70121FE4880F8E0
:1022D0002510A0F826900020ADE70146FA4890F8B6
:1022E00024000870002070474FF0FF30704702460E
:1022F0004FF0FF30704701464FF0FF307047F8B5A0
:1023000005460F461446002C70D0B5F5FF5F01DD81
:10231000FF2605E0202D01DA012601E0C5F347166E
:1023200007B90127282C02DD4FF0FF30F8BDE64841
:10233000407D28BBE44890F8240038B10020FFF726
:1023400023FE0121E04880F8201003E00021DE4850
:1023500080F82010DC481630FFF751F8DA481830C2
:10236000FFF76DF8D8481A30FFF78DF8D6481C30C3
:10237000FFF7AEF8D448817A81771F30FFF702F972
:102380000020FEF75FF90020FEF788FC00208DF8A2
:102390000000CD4A12689178CB4A526810786B469B
:1023A000012201F062FC10B14FF0FF30BEE7402087
:1023B0008DF80000C44A1268D17BC34A5268107875
:1023C0006B46012201F051FC00B165E08DF8006020
:1023D0008DF80170BC4A1268117ABB4A52681078B5
:1023E0006B46022201F041FC08B155E047E00520B0
:1023F00001F0F5FDB448407A072101EBC000C0B2FE
:102400008DF80000B04A1268D179AF4A526810784E
:102410006B46012201F029FC00B13DE020208DF83F
:102420000000012C03D100208DF801000EE0052CE6
:1024300003DC01208DF8010008E0142C03DC0220ED
:102440008DF8010002E003208DF801009DF80100E5
:10245000072101EB8010C0B28DF801009A4A126882
:10246000917C994A526810786B46022201F0FDFB7C
:1024700000B111E0012194484175002056E7924ACD
:102480001632002103E0505C00B105E0491C0C2924
:10249000F9D34FF0FF3049E7FF208B490872FF2145
:1024A00089484172C1724FF6FF71C181FF2181726B
:1024B0000174012101730146887FFEF786F9824984
:1024C000C88AFEF7E6FC8049087EFEF7A0FC7E493C
:1024D000488BFEF7A4FB7C49888BFEF74CFC7A49BD
:1024E000C87FFEF767FB784890F8200010B1012004
:1024F000FFF74AFD002174484175002016E770B5CA
:1025000088B002A905A8FFF784FD0446032C3ED13C
:1025100001A8FEF7F3FF059805F094F90646019926
:1025200005F0F0F9054605F051F90590069805F01B
:1025300089F90646019905F0E5F9054605F046F9E1
:102540000690079805F07EF90646019905F0DAF93C
:10255000054605F03BF9079005A800F052FA6846D9
:10256000FEF7E9FFBDF80010029848430290BDF85D
:102570000010039848430390BDF8001004984843A6
:10258000049002A800F0D0FA002008B070BD01202D
:10259000FBE7014691F90020002A01DD00201EE042
:1025A00091F90020002A01DA042018E091F90120B5
:1025B000002A01DD012012E091F90120002A01DA50
:1025C00005200CE091F90220002A01DD022006E03E
:1025D00091F90220002A01DA062000E00720704766
:1025E00010B504462046FFF7D4FF0346E01CFFF772
:1025F000D0FF43EAC00083B2A01DFFF7CAFF43EA41
:10260000801083B2184610BD70B5002401F016F892
:10261000FEF781FC002840D17820FEF7D6F8C4B23E
:102620000CB1012070BD7820FEF7C4FAC4B20CB121
:102630000220F7E76420FEF79EFBC4B20CB1032032
:10264000F0E700F043F9C4B20CB10420EAE71F48F8
:10265000FFF7C6FF054600F043F9C4B20CB10520F0
:10266000E0E740F2731000F07CFDC4B20CB106202C
:10267000D8E7642000F0EEFAC4B20CB10720D1E72D
:10268000FFF73DFF04460CB10820CBE70120FFF720
:102690007BFCC4B20CB10920C4E70020C2E72DE9DD
:1026A000F04F99B004460D4616464FF07E574FF056
:1026B00000084FF000094FF0000A12A813A918AB48
:1026C0000EAACDE9001003E02400002050000020F5
:1026D00014A916A800F0A4FE18B1012019B0BDE895
:1026E000F08FBDF84C0000F4807000287ED00E986A
:1026F00005F0A8F883464FF09D4104F071FF0746AE
:102700000F9805F09FF883464FF09D4104F068FF55
:102710008046109805F096F883464FF09D4104F0EE
:102720005FFF8146119805F08DF883464FF09D417B
:1027300004F056FF824639464FF0804005F0E2F83B
:102740004946059005F0DEF8414607904FF04040BD
:1027500005F0D8F85146059005F0D4F80690079991
:1027600004F0D0FE834604F0A1FECDE9080103F099
:10277000C5FD4FF06632544BCDE90A0104F086FBEB
:10278000CDE90C0104F0E8F8206049464FF08040A4
:1027900005F0B8F84946029005F0B4F841460490B7
:1027A0004FF0404005F0AEF84146029005F0AAF81F
:1027B0000390049905F0AEF983464FF07E5104F082
:1027C000A1FE059004F072FECDE9080139464FF0F4
:1027D000804005F097F84146039005F093F849468C
:1027E00004904FF0804005F08DF800E068E051461D
:1027F000039005F087F88346049904F083FE059062
:1028000004F054FECDE90601DDE9082303F0BEFF24
:102810004FF066322C4BCDE90A0104F037FBCDE9CD
:102820000C0104F099F828605146504605F06AF80A
:1028300049460490484605F065F8414603904046F5
:1028400005F060F839460190384605F05BF80090D5
:10285000019904F057FE0290039905F05BF9834655
:10286000049905F057F9059004F020FECDE9080120
:102870005146384605F046F849460490404605F072
:1028800041F80390049904F03DFE4FF0804105901B
:1028900005F038F8834604F009FECDE90601DDE9CC
:1028A000082303F073FF4FF06632074BCDE90A01AE
:1028B00004F0ECFACDE90C0104F04EF8306001E0D0
:1028C00002200BE7002009E766A64C4010B5C8239C
:1028D0004FF48062F74940F6F630FFF79FFC10BDD9
:1028E00010B586B00446F4A000680390F3A0006819
:1028F0000290F3A000680190F2A00068009004F03C
:10290000030003A9085C8DF8140003A8C4F3C101F7
:10291000405C8DF8150003A8C4F38111405C8DF86C
:10292000160004F0030002A9085C8DF8100002A84C
:10293000C4F3C101405C8DF8110002A8C4F38111F9
:10294000405C8DF8120005AA032140F22640FFF7F3
:10295000EBFB18B14FF0FF3006B010BD04AA032105
:1029600040F22A40FFF7E0FB10B14FF0FF30F3E7F1
:10297000019805900098049004F0040058B19DF867
:10298000140040F001008DF814009DF8100040F094
:1029900001008DF8100004F0200058B19DF81500DA
:1029A00040F001008DF815009DF8110040F0010085
:1029B0008DF8110004F4807058B19DF8160040F0B5
:1029C00001008DF816009DF8120040F001008DF80E
:1029D000120005AA03214FF48860FFF7A5FB10B190
:1029E0004FF0FF30B8E704AA032140F23140FFF76F
:1029F0009BFB10B14FF0FF30AEE7B34804810020DD
:102A0000AAE71FB50446B048007A00F0030054F866
:102A100020000190AC48007A00F0040010B1019849
:102A200040420190A848007AC0F3C10054F8200049
:102A30000290A548007A00F0200010B102984042B0
:102A40000290A148007AC0F3811054F8200003904E
:102A50009D48008900F4807010B1039840420390B3
:102A60009A49019880FB0101800F40EA81000190A2
:102A70009649029880FB0110820042EA9170029010
:102A80009249039880FB0110820042EA9170039002
:102A90000198000E8DF800000198000C8DF80100DF
:102AA0000198000A8DF802000198C0B28DF8030069
:102AB0006A4604214FF47470FFF736FB18B14FF0EB
:102AC000FF3004B010BD0298000E8DF8000002988F
:102AD000000C8DF801000298000A8DF8020002989F
:102AE000C0B28DF803006A4604214FF47570FFF7F9
:102AF0001BFB10B14FF0FF30E3E70398000E8DF899
:102B000000000398000C8DF801000398000A8DF86E
:102B100002000398C0B28DF803006A4604214FF406
:102B20007670FFF701FBCCE770B588B0064601A8C8
:102B3000FEF701FDBDF804000021C90341EA50453C
:102B4000C4036148007A00F0030056F820000590A5
:102B50005D48007A00F0040010B1059840420590ED
:102B60005948007AC0F3C10056F820000690564834
:102B7000007A00F0200010B10698404206905248BA
:102B8000007AC0F3811056F8200007904E48008963
:102B900000F4807010B10798404207900598C11763
:102BA000A0FB042301FB043100FB0510810041EA76
:102BB000927005900698C117A0FB042301FB043115
:102BC00000FB0510810041EA927006900798C1173A
:102BD000A0FB042301FB043100FB0510810041EA46
:102BE000927007900598000E8DF808000598000C6B
:102BF0008DF809000598000A8DF80A000598C0B202
:102C00008DF80B000698000E8DF80C000698000C4D
:102C10008DF80D000698000A8DF80E000698C0B2D7
:102C20008DF80F000798000E8DF810000798000C23
:102C30008DF811000798000A8DF812000798C0B2AD
:102C40008DF8130002AA0C214FF42570FFF76CFADF
:102C500008B070BD30B585B004461DA207CA02ABEE
:102C600007C3C82C03DD4FF0FF3005B030BDC820CE
:102C700090FBF4F0401E85B2280A8DF80000E8B2FF
:102C80008DF801006A46022140F21620FFF74CFA47
:102C900010B14FF0FF30E8E702AA0C2140F6C12046
:102CA000FFF742FA10B14FF0FF30DEE706488481AB
:102CB0000020DAE7407D00084CCD6C000CC92C00E8
:102CC00036567600264666008800002009E3CA02D0
:102CD000FEF2ABC4AAF1DFDFBBAFDFDF0146FC4889
:102CE00080890880002070472DE9FC4706460F4682
:102CF00006F0070010B1B7F5C86F03DD4FF0FF30E5
:102D0000BDE8FC87384604F0B5FD8146F14904F082
:102D100067FC80466846FEF792FB9DF8000002289B
:102D200006D0042816D0082826D0102848D135E02F
:102D30004FF08D41404604F0E5FD814604F062FD10
:102D400084B2E549404604F0DDFD814604F05AFDB9
:102D500085B238E04FF08C41404604F0D3FD814607
:102D600004F050FD84B2DD49404604F0CBFD8146BD
:102D700004F048FD85B226E04FF08B41404604F058
:102D8000C1FD814604F03EFD84B2D549404604F0C1
:102D9000B9FD814604F036FD85B214E04FF08A415A
:102DA000404604F0AFFD814604F02CFD84B2CD49CD
:102DB000404604F0A7FD814604F024FD85B202E000
:102DC0004FF0FF309CE700BF20128DF80400E0B206
:102DD0008DF8050028128DF80600E8B28DF807007E
:102DE00006F00100A0B101AA02214FF4EA70FFF73A
:102DF0009BF910B14FF0FF3082E70DF1060202217E
:102E00004FF49270FFF790F910B14FF0FF3077E771
:102E100006F00200A0B101AA02214FF4EC70FFF706
:102E200083F910B14FF0FF306AE70DF1060202217D
:102E30004FF49470FFF778F910B14FF0FF305FE76F
:102E400006F00400A0B101AA02214FF4EE70FFF7D2
:102E50006BF910B14FF0FF3052E70DF1060202217D
:102E60004FF49670FFF760F910B14FF0FF3047E76D
:102E7000002045E738B504460020009004F001002A
:102E800020B19DF8000040F03000009004F00200F6
:102E900020B19DF8000040F00C00009004F0040008
:102EA00020B19DF8000040F0030000906A46012127
:102EB0004FF4A470FFF738F938BD38B50446012C3B
:102EC00001DA012402E0042C00DD0424601EC0B2FB
:102ED00000906A46012140F24F10FFF725F938BDF6
:102EE00038B50446052094FBF0F085B228128DF821
:102EF0000000E8B28DF801006A4602214FF4EF703D
:102F0000FFF712F938BD38B50446052094FBF0F000
:102F100085B228128DF80000E8B28DF801006A46EB
:102F200002214FF4ED70FFF7FFF838BDF8B5054604
:102F30000E464FF47A7095FBF0F000FB06F4200E7D
:102F40008DF80000200C8DF80100200A8DF8020099
:102F5000E0B28DF803006A4604214FF4AE70FFF72B
:102F6000E3F8F8BD38B50446052094FBF0F084B2D0
:102F700020128DF80000E0B28DF801006A460221AF
:102F80004FF4AD70FFF7D0F838BD38B504460520D2
:102F900094FBF0F084B220128DF80000E0B28DF8BE
:102FA00001006A4602214FF4AC70FFF7BDF838BD4E
:102FB00038B5044614B94FF0FF3038BD6A460421D5
:102FC0004FF45870FFF7EDF810B14FF0FF30F4E711
:102FD0009DF8000000069DF8011040EA01409DF8B0
:102FE000021040EA01209DF80310084320600020F1
:102FF000E3E738B50446200E8DF80000200C8DF86C
:103000000100200A8DF80200E0B28DF803006A4644
:1030100004214FF45870FFF787F838BD38B50446DF
:1030200014B94FF0FF3038BD6A4604214FF4717077
:10303000FFF7B7F810B14FF0FF30F4E79DF800004C
:1030400000069DF8011040EA01409DF8021040EA98
:1030500001209DF80310084300EB800080002060F1
:103060000020E0E738B504461420B4FBF0F4200E4D
:103070008DF80000200C8DF80100200A8DF8020068
:10308000E0B28DF803006A4604214FF47170FFF737
:103090004BF838BD38B5044664B120208DF80000E7
:1030A00028208DF8010030208DF8020038208DF89E
:1030B000030004E0A3220421684602F007FF6A46E9
:1030C000042140F69E20FFF72FF8FDF787FC38BD5E
:1030D0008800002000004843000040460000C04532
:1030E000000040450000C04438B5044664B1C0202B
:1030F0008DF80000C2208DF80100C4208DF8020078
:10310000C6208DF8030004E08B220421684602F0FB
:10311000DDFE6A46042140F69820FFF705F8FDF72A
:103120005DFC38BD3EB504466CB1FDA1D1E900207F
:103130008968CDE9002002916A4609214FF4976021
:10314000FEF7F2FF3EBDF9A2D2E900109268CDE988
:10315000010200916A4609214FF49760FEF7E4FFEF
:10316000F0E73EB5044602208DF80000CA208DF835
:103170000100E3208DF8020009208DF803006A4663
:1031800004216820FEF7D0FFA3208DF8000004F092
:10319000400048B1C0208DF80100C8208DF8020021
:1031A000C2208DF8030006E0A3208DF801008DF801
:1031B00002008DF8030004F4C07048B1C4208DF8FB
:1031C0000400CC208DF80500C6208DF8060006E02E
:1031D000A3208DF804008DF805008DF80600A320CB
:1031E0008DF807008DF808008DF809006A460A215D
:1031F00040F6A720FEF798FF04F0030018B1202046
:103200008DF8000002E0D8208DF800006A46012108
:1032100040F6B620FEF788FF04F0200018B1012028
:10322000FFF780FF02E00020FFF77CFF04F4C0708E
:1032300008B304F4807060B1B2208DF800008B20D8
:103240008DF80100B6208DF802009B208DF8030058
:103250000BE0B0208DF8000080208DF80100B42034
:103260008DF8020090208DF803006A46042140F694
:10327000A220FEF759FF04F0010020B3F8208DF8DA
:1032800000006A4601214FF40B60FEF74DFFFA2162
:103290000720FFF729FD0720FFF7ECFD0120FFF7CE
:1032A0000CFE6420FFF71CFE4FF4FA70FFF72BFEB4
:1032B000C821A148FFF73AFE2820FFF753FE0A2055
:1032C000FFF763FE08E0D8208DF800006A46012170
:1032D0004FF40B60FEF728FF04F0020018B1D9206C
:1032E0008DF8000002E0D8208DF800006A46012128
:1032F00040F23D70FEF718FF04F0040018B1012001
:10330000FFF7F2FE02E00020FFF7EEFE04F01000EF
:1033100018B10120FFF7BEFE02E00020FFF7BAFE61
:1033200044F0080085494881FDF758FB0020834997
:10333000887304F0400018B10846807B801D8873B4
:1033400004F4C07020B17D48807B801D7B49887368
:1033500004F0140020B17948807B103077498873DD
:1033600004F0030020B17548807B001D7349887309
:1033700000203EBD0146714840890880002070470A
:103380002DE9F0410446E07800F0C006E07800F056
:103390003F05607800F0010098B1EF102846E9176A
:1033A00005EB5171C910A5EBC101491C01F0FF08E3
:1033B0006248006820B1614841460268384690473B
:1033C00000BF607800F0080030B15C48406818B178
:1033D000B0115A4A516888470020BDE8F08110B505
:1033E00086B0044656A207CA03AB07C357A207CA52
:1033F0008DE80700012C09D0022C0ED103AA0B2165
:1034000040F68220FEF790FE06B010BD6A460B2102
:1034100040F68220FEF788FEF6E74FF0FF30F3E734
:103420002DE9F04F8DB00746884615469946DDE9EF
:10343000166B0024002030804049887B5A4605A93D
:10344000FEF7D5F918B1601E0DB0BDE8F08F3B480E
:10345000807A00F01400002861D09DF81400000666
:103460009DF8151040EA01409DF8161040EA012031
:103470009DF81710084328609DF8180000069DF875
:10348000191040EA01409DF81A1040EA01209DF809
:103490001B10084368609DF81C0000069DF81D1075
:1034A00040EA01409DF81E1040EA01209DF81F10DF
:1034B0000843A8609DF8200000069DF8211040EA0E
:1034C00001409DF8221040EA01209DF82310084396
:1034D000E86004F11000C4B2286800140190686824
:1034E00000140290A86800140390E8680014049087
:1034F00001984043029901FB0100039901FB01007F
:10350000049901FB010ABAF1706F02DBBAF1885F1E
:1035100022DDFDF763FA00203080401E94E721E0B1
:10352000B8AAB38DB4980D355D000000B8AAAAAA58
:10353000B088C3C5C700000009E3CA0288000020A4
:10354000D8B1B9F38BA391B609B4D900DAB1B9F304
:103550008BA391B6DAB4DA00B6F9000040F48070BB
:10356000308000BF3448807A00F0400020B305A9C5
:10357000601C085C095D40EA012000B2A8F8000068
:1035800005A9E01C095C05AAA01C105C41EA00200A
:1035900000B2A8F8020005A9601D095C201D105C9E
:1035A00041EA002000B2A8F80400A01DC4B2B6F998
:1035B000000040F0080030801F48408900F4C070CF
:1035C00008B305A9601C085C095D40EA012000B24F
:1035D000388005A9E01C095C05AAA01C105C41EA22
:1035E000002000B2788005A9601D095C201D105CD8
:1035F00041EA002000B2B880A01DC4B2B6F90000B4
:1036000040F0700030800C48807A00F0030018B160
:1036100005A90819FFF7B4FE4846FDF74CFD002048
:1036200012E7014604480160002070470146024845
:1036300041600020704700008800002008B501218B
:10364000082001F043F94FF44060ADF8000010206D
:103650008DF8030003208DF802006946914800F0C0
:1036600079FE0120904908609049C1F8AC0108BD7D
:1036700010B58C48001D006820F470408949091D70
:1036800008600846006840F4405008600120864900
:10369000091D08608549C1F8A801042000F07BFCE1
:1036A00000208149091D0860042000F074FC0020FE
:1036B0007E49C1F8A80110BD10B57A48001D006808
:1036C00020F470407749091D08600846006840F4FE
:1036D000405008600020744908607449C1F8AC018A
:1036E000042000F058FC01206F4908606F49C1F8C0
:1036F000AC01042000F04FFC10BD10B50024694857
:10370000001D006820F470406649091D08600846E5
:10371000006840F40040086001206349091D08600A
:1037200000F039FC01206149C1F8A80100F033FC28
:1037300007E0601CC4B2FA2C03DDFFF7BDFF0120D7
:1037400010BD59487C3800680028F2D156490860FD
:1037500000BFF5E710B50020534908605148001D2F
:10376000006820F470404F49091D08600846006851
:1037700040F44050086000204C49C1F8AC010220E0
:1037800000F009FC012048490860022000F003FC19
:1037900000204649C1F8A80110BD10B500204249DB
:1037A00008604048001D006820F470403D49091D34
:1037B00008600846006840F44050086001203B491A
:1037C000C1F8AC01022000F0E6FB01203649086098
:1037D000022000F0E0FB00203449C1F8A80110BD30
:1037E00070B504462F48001D006820F470402D4934
:1037F000091D08600846006840F440500860002039
:1038000029490860002517E0E0092749091D0860DB
:103810006006040E022000F0BEFB01202349C1F81F
:10382000A801022000F0B7FB00201F490860022019
:1038300000F0B1FB681CC5B2082DE5DB70BD70B5AA
:10384000054600241748001D006820F47040154903
:10385000091D08600846006840F400400860002622
:1038600016E0002010490860022000F094FB0120BF
:103870000E49C1F8A8016006040E0B487C380068A8
:1038800008B1601CC4B2012000F085FB701CC6B2F8
:10389000082EE6DB15B9FFF780FF01E0FFF75AFFBE
:1038A000204670BD000C0140A881214200802142C9
:1038B00070B504460D461646FFF7DAFE002141EAD0
:1038C0004401C8B2FFF78CFFFFF717FF18B1FFF7ED
:1038D000F3FE012070BD2846FFF782FFFFF70DFFC2
:1038E0003046FFF77DFFFFF708FF18B1FFF7E4FE52
:1038F0000120EFE7FFF7E0FE0020EBE770B504469C
:103900000D46FFF7B5FE002141EA4401C8B2FFF7BA
:1039100067FFFFF7F2FE2846FFF762FFFFF7EDFEB5
:10392000FFF7A6FE012101EB4401C8B2FFF758FFE3
:10393000FFF7E3FE0020FFF782FF0646FFF7BCFE1D
:10394000304670BD70B504460025BC2C01DB012556
:1039500010E0622C01DB02250CE02A2C01DB0325A0
:1039600008E0142C01DB042504E00A2C01DB05250A
:1039700000E006252A461A216820FFF799FF70BD4E
:1039800070B50446B4F57A7F01DD4FF47A74042CE7
:1039900000DA04244FF47A7090FBF4F0401EC5B2B4
:1039A0002A4619216820FFF783FF0546264604EBC7
:1039B000D671C1F34F00FFF7C5FF70BD10B50446C7
:1039C000E006020E1C216820FFF772FF10BD10B543
:1039D0000446E006020E1B216820FFF769FF10BDB8
:1039E00010B5002480226B216820FFF761FF64205E
:1039F00000F0F5FA00226B216820FFF759FF032041
:103A0000FFF7E5FF0020FFF7D9FF3220FFF7B8FFEF
:103A1000002238216820FFF74BFF00226A2168202E
:103A2000FFF746FF002223216820FFF741FF822293
:103A300037216820FFF73CFF75216820FFF75EFF04
:103A40000446712C01D0732C0DD101226B2168200A
:103A5000FFF72EFF00226C216820FFF729FF32209C
:103A6000FFF78EFF01E0012010BD4FF4FA7000F067
:103A7000B6FA11220A210C20FFF71AFF00210C20B0
:103A8000FFF73CFF0446214690A002F0BBF8482C0B
:103A900005D111220A210C20FFF70AFF01E00120C5
:103AA000E2E70020E0E72DE9F04106460F46144624
:103AB0001D46FFF7DDFD002141EA4601C8B2FFF7D0
:103AC0008FFEFFF71AFE20B1FFF7F6FD0120BDE8DB
:103AD000F0813846FFF784FEFFF70FFEFFF7C8FDC1
:103AE000012101EB4601C8B2FFF77AFEFFF705FEA0
:103AF0000DE0012C04D10020FFF7A1FE287003E0A7
:103B00000120FFF79CFE2870601EC4B26D1C002CC3
:103B1000EFD1FFF7D1FD0020D9E72DE9F84F6B4633
:103B2000022241216820FFF7BEFF9DF801009DF8A9
:103B3000001040EA01200FFA80FA504603F052F9D3
:103B40008046644A644B02F0F5FF06460022634B50
:103B500002F034FF044602F0FFFE834660495846F7
:103B600003F0D0FE044603F031FE00B2BDE8F88F4A
:103B70002DE9FC4104460D4616466B4606224321BC
:103B80006820FFF790FF0746BFB99DF801009DF838
:103B9000001040EA012000B220809DF803009DF84B
:103BA000021040EA012000B228809DF805009DF82F
:103BB000041040EA012000B230803846BDE8FC81A4
:103BC0002DE9FC4104460D4616466B4606223B2174
:103BD0006820FFF768FF0746BFB99DF801009DF810
:103BE000001040EA012000B220809DF803009DF8FB
:103BF000021040EA012000B228809DF805009DF8DF
:103C0000041040EA012000B230803846BDE8FC8153
:103C10002DE9FC4104460D4616466B46062203215B
:103C20000C20FFF740FF0746BFB99DF800009DF844
:103C3000011040EA012000B220809DF802009DF8AA
:103C4000031040EA012000B228809DF804009DF88E
:103C5000051040EA012000B2308011220A210C2018
:103C6000FFF726FE3846BDE8FC812DE9F041054608
:103C70000E4617469846FFF7FBFC002141EA450136
:103C8000C8B2FFF7ADFDFFF738FD20B1FFF714FD17
:103C90000120BDE8F0813046FFF7A2FDFFF72DFDC2
:103CA00000240CE018F80400FFF79AFDFFF725FD4B
:103CB00018B1FFF701FD0120EBE7601CC4B2BC4264
:103CC000F0DBFFF7F9FC0020E3E7000069643A2528
:103CD000780D0A0052B81E85EBDD744000003540B7
:103CE0000000C842002800DC4042704710B50020A8
:103CF0008D49086048608860C860C8618B48486228
:103D00008B48006808610846416A8A48006803F0E9
:103D100067FC854948610846416A8748006803F0A6
:103D20005FFC8149886185A001F06CFF10BD2DE921
:103D3000F047804600207C490860084601684046FC
:103D400003F0DDFE78498860886803F03FFD071EB8
:103D500001DB394600E07942084603F043F80546A6
:103D60007A4A7B4B03F090F97DD26F49886803F063
:103D70002DFD051E01DB284600E06842122801DD0A
:103D8000002430E06849886803F020FD051E01DB4F
:103D9000284600E06842112809DA4FF07E54624A52
:103DA0009168D06903F0AEFB5F49C8611BE05E49D2
:103DB000886803F00BFD051E01DB284600E0684221
:103DC000C0F11200122190FBF1F00A2190FBF1F6F4
:103DD000304603F037FD0446534A9168D06903F03A
:103DE00091FB5149C861504AD168906803F092FE36
:103DF00007464D488169384603F084FD05464A4828
:103E00004169204603F07EFD82464748C16950461D
:103E100003F078FD0746444A9168106903F072FD8B
:103E20008146394603F06EFB0646294603F06AFBDD
:103E30003D49086208468068C860086A03F0C6FC0D
:103E4000394988620846816A42A001F0DBFE3648A3
:103E5000806AB0F5C87F03DD4FF4C87032498862CC
:103E60003148806A00E04BE010F5C87F02DA3B4839
:103E70002D4988622C48806A00281EDB2A48806A07
:103E8000B430294988620021354801F04BFC2648AE
:103E9000008D81B2324801F047FC2348806A401E01
:103EA0002149886200212E4801F040FC1E48008D07
:103EB00081B22B4801F03CFC32E01B48806A404252
:103EC000194988620846806AB43088620846008DC5
:103ED00081B2234801F026FC0021214801F024FC96
:103EE0001148806A401E104988620846008D81B2E0
:103EF0001B4801F01BFC0021194801F019FC0FE0E0
:103F00000021174801F00EFC0021154801F00CFCBF
:103F10000021134801F00AFC0021114801F008FCBF
:103F20000148806ABDE8F087980000200AD7233C4A
:103F30005C00002060000020640000205049445FC5
:103F4000696E697420656E64200A00009A999999D7
:103F50009999B93F25640D0A0000000070FEFFFF2B
:103F60000008004010B56FF0040000F074F92E480E
:103F700000682E49B0FBF1F02D4908700846007822
:103F800000EB4001C1EBC0104FF6FF7101EAC00029
:103F90002849088010BD0146254A12784A434FF04F
:103FA000E0235A6100229A611A46126942F0010226
:103FB0001A6100BF4FF0E022106900F001021AB14F
:103FC00000F48032002AF5D04FF0E022126922F08E
:103FD00001024FF0E0231A6100229A617047014606
:103FE000144A12884A434FF0E0235A6100229A6132
:103FF0001A46126942F001021A6100BF4FF0E02236
:10400000106900F001021AB100F48032002AF5D0E4
:104010004FF0E022126922F001024FF0E0231A6112
:1040200000229A61704700001000002000127A0000
:10403000680000206A000020014600BF704700BFF2
:10404000494A128802F04002002AF9D0C2B2464B17
:104050001B1D1A80704710B586B00446012144F23A
:10406000040000F033FC4FF40070ADF8140003209E
:104070008DF8160018208DF8170005A93B4800F0B0
:1040800069F94FF48060ADF8140004208DF8170032
:1040900005A9364800F05EF925208DF800000320C0
:1040A0008DF801008DF8020001208DF803006846AC
:1040B00000F087F801940020ADF80800ADF80A0080
:1040C000ADF80C00ADF810000C20ADF80E0001A901
:1040D000254801F0B0FB012240F22551224801F0B1
:1040E00042FC0121204801F032FC06B010BD10B5A1
:1040F00040F225511C4801F01BFD10B31A4801F095
:1041000097FCC4B21A48008800F40040C8B91848A7
:10411000008800F4804060B10A2C03D000201449CC
:10412000088020E01248008840F4004010490880D0
:1041300019E00D2C06D10E48008840F480400C494F
:10414000088010E00A480088C0F30D0009490C54AB
:1041500007480088401C0649088008460088C72890
:1041600001DD0020088010BD00380140000801403A
:1041700070000020C400002009488047094800471B
:10418000FEE7FEE7FEE7FEE7FEE7FEE7FEE7FEE707
:10419000FEE7FEE704480549054A064B7047000064
:1041A000BB03000831010008F0010020F0070020E7
:1041B000F0030020F003002031490143314A11602F
:1041C000704770B5002100230F22C47804B32D4C32
:1041D000246804F4E064C4F5E064210AC1F1040336
:1041E000CA40447804FA03F1847814402143090159
:1041F000254C0678A155047804F01F050124AC4035
:1042000005786D11AD0005F1E025C5F8004109E024
:10421000047804F01F050124AC401C4D067876118B
:1042200045F8264070BD1A4A0A400243154B1B1F31
:104230001A60704739B1134A121D12680243114BBC
:104240001B1D1A6006E00F4A121D126882430D4BB7
:104250001B1D1A607047042808D14FF0E02109693E
:1042600041F004014FF0E022116107E04FF0E0213E
:10427000096921F004014FF0E0221161704700004C
:104280000000FA050CED00E000E400E080E100E051
:1042900080FFFF1F10B50446CC48844208D101219D
:1042A000042000F02DFB0021042000F029FB46E053
:1042B000C748844208D10121082000F021FB0021D9
:1042C000082000F01DFB3AE0C248844208D10121D9
:1042D000102000F015FB0021102000F011FB2EE053
:1042E000BD48844208D10121202000F009FB0021B3
:1042F000202000F005FB22E0B848844208D10121CB
:10430000402000F0FDFA0021402000F0F9FA16E00C
:10431000B348844208D10121802000F0F1FA002145
:10432000802000F0EDFA0AE0AE48844207D1012176
:10433000801500F0E5FA0021A01500F0E1FA10BDAB
:1043400010B50121084600F0DBFA0021012000F041
:10435000D7FA10BD2DE9F0410246002500260020C5
:1043600000230024002791F803C00CF00F0591F8FA
:1043700003C00CF0100CBCF1000F03D091F802C088
:104380004CEA050591F800C0BCF1000F31D014686B
:1043900000202BE04FF0010C0CFA00F3B1F800C044
:1043A0000CEA03069E4220D183004FF00F0C0CFA5A
:1043B00003F7BC4305FA03FC4CEA040491F803C07C
:1043C000BCF1280F06D14FF0010C0CFA00FCC2F82A
:1043D00014C00AE091F803C0BCF1480F05D14FF0BA
:1043E000010C0CFA00FCC2F810C0401C0828D1D304
:1043F0001460B1F800C0BCF1FF0F34DD5468002038
:104400002EE000F1080C4FF0010808FA0CF3B1F8A7
:1044100000C00CEA03069E4221D183004FF00F0C2E
:104420000CFA03F7BC4305FA03FC4CEA040491F8C8
:1044300003C0BCF1280F05D100F1080C08FA0CF8F4
:10444000C2F8148091F803C0BCF1480F07D100F105
:10445000080C4FF0010808FA0CF8C2F81080401C54
:104460000828CED35460BDE8F0814FF6FF7101807B
:10447000022181700421C1707047024600209368B8
:104480000B400BB1012000E0002070470146886816
:1044900080B2704702460020D3680B400BB1012068
:1044A00000E0002070470146C86880B27047016193
:1044B0007047416170470AB1016100E04161704796
:1044C000C16070474FF480320A438261816182612A
:1044D00082698269704702460020434B18684FF694
:1044E0008073184040EA021008433F4B1860704741
:1044F0003E49C8617047F0B50A46002300240021F8
:10450000002500F00046B6F1004F02D1364EF169A9
:1045100001E0354E7168C0F3034583B200F44016E4
:10452000B6F5401F08D121F070612F4E766826F055
:1045300070662D4F7E6012E000F48016B6F5801F85
:1045400006D1032606FA05F4A14341F0706106E0A6
:10455000460D360103FA06F6B14341F0706122B10F
:10456000460D360103FA06F6314300F00046B6F177
:10457000004F02D11C4EF16101E01B4E7160F0BD95
:1045800030B500228B071C0F0F2303FA04F2164BE1
:1045900008338C1053F824309343134C08348D1097
:1045A00044F8253023468C1053F824308C07240F10
:1045B00000FA04F423430C4C08348D1044F82530E1
:1045C00030BD0A49DC310860704700000008014036
:1045D000000C01400010014000140140001801408F
:1045E000001C01400020014000000140000020426A
:1045F000DF48006840F00100DD4908600846406877
:10460000DC490840DA49486008460068DA49084051
:10461000D74908600846006820F4802008600846F2
:10462000406820F4FE0048604FF41F008860704727
:10463000CF49096821F48031CD4A116011460968DB
:1046400021F480211160B0F5803F03D0B0F5802FB8
:104650000ED106E0C649096841F48031C44A1160B0
:1046600007E0C349096841F4A021C14A116000E094
:1046700000BF00BF704710B5014600220023002094
:104680004A11012A02D1BA4C236806E0022A02D15B
:10469000B74C236A01E0B64C636A01F01F020124A3
:1046A00094401C400CB1012000E0002010BD38B542
:1046B000002000900024002500BF3120FFF7DBFF21
:1046C00005460098401C00900098B0F5A06F01D0FE
:1046D000002DF2D03120FFF7CEFF08B1012400E019
:1046E0000024204638BD01460020A14A106820F071
:1046F000F80040EAC10010607047A04908607047A8
:10470000024600209A4B586820F47C1042EA0103CC
:104710001843974B586070479849086670470146A0
:104720000020934A506820F003000843506070470F
:104730008F48406800F00C007047014600208C4A0A
:10474000506820F0F0000843506070470146002098
:10475000874A506820F4E060084350607047014683
:104760000020834A506820F4605040EAC100506045
:10477000704729B17E4A527A02437D4B5A7204E057
:104780007B4A527A82437A4B5A7270477B49D831BE
:104790000860704701460020754A506820F4404088
:1047A0000843506070470021714A20321170704AEE
:1047B00082F82010012802D004280AD104E0012147
:1047C0006B4A2032117005E00521694A20321170D0
:1047D00000E000BF00BF7047694908607047644946
:1047E000096A0143624A11627047654944390860A9
:1047F000704730B500210022002400235C4D6D6815
:1048000005F00C0121B1042905D0082923D105E0C8
:104810005C4D056022E05B4D05601FE0544D6D6806
:1048200005F47012524D6D6805F48034022505EBD5
:1048300092421CB9544D554305600BE04C4D6D68D8
:1048400005F400351DB1504D5543056002E04D4D56
:104850005543056002E04B4D056000BF00BF444D6D
:104860006D6805F0F0010909484D6B5C0568DD4095
:1048700045603F4D6D6805F4E061090A434D6B5C8E
:104880004568DD4085603A4D6D6805F46051C90AA0
:104890003E4D6B5C4568DD40C560354D6D6805F487
:1048A0004041890B3A4D6B5CC568B5FBF3F505617A
:1048B00030BD29B12E4A526902432D4B5A6104E0A2
:1048C0002B4A526982432A4B5A61704729B1284AC0
:1048D00092690243264B9A6104E0254A9269824319
:1048E000234B9A61704729B1214AD2690243204B78
:1048F000DA6104E01E4AD26982431D4BDA617047D7
:1049000029B11B4AD2680243194BDA6004E0184A05
:10491000D2688243164BDA60704729B1144A126993
:104920000243134B1A6104E0114A12698243104B8F
:104930001A61704712494039086070470F49C864CE
:1049400070470B49C87170470948406A40F0807051
:1049500007494862704701460020054A92680A40AC
:104960000AB1012000E000207047014988727047B9
:10497000001002400000FFF8FFFFF6FE0000424278
:104980008004424200127A0000093D0072000020BB
:104990008200002010B50446FE48844208D101215F
:1049A000C014FFF7ADFF0021E014FFF7A9FFC4E03A
:1049B000B4F1804F08D101210846FFF7AEFF002176
:1049C0000120FFF7AAFFB8E0F348844208D1012193
:1049D0000220FFF7A2FF00210220FFF79EFFACE0BC
:1049E000EE48844208D101210420FFF796FF002100
:1049F0000420FFF792FFA0E0E948844208D101219A
:104A00000820FFF78AFF00210820FFF786FF94E0C7
:104A1000E448844208D101211020FFF77EFF0021E5
:104A20001020FFF77AFF88E0DF48844208D1012197
:104A30002020FFF772FF00212020FFF76EFF7CE0AF
:104A4000DA48844208D101214014FFF759FF0021C0
:104A50006014FFF755FF70E0D548844209D1012169
:104A6000C804FFF74DFF00214FF40020FFF748FF77
:104A700063E0D048844209D101210805FFF740FFD7
:104A800000214FF48010FFF73BFF56E0CA488442F4
:104A900009D101214805FFF733FF00214FF4001031
:104AA000FFF72EFF49E0C548844208D1012140208C
:104AB000FFF733FF00214020FFF72FFF3DE0C04804
:104AC000844208D101218020FFF727FF00218020A8
:104AD000FFF723FF31E0BB48844208D10121801554
:104AE000FFF71BFF0021A015FFF717FF25E0B648D1
:104AF000844209D101210804FFF702FF00214FF48D
:104B00008030FFF7FDFE18E0B048844209D1012152
:104B10004804FFF7F5FE00214FF40030FFF7F0FEE8
:104B20000BE0AB48844208D101218804FFF7E8FE7E
:104B300000214FF48020FFF7E3FE10BD0022028821
:104B4000944B98420ED0994B98420BD0B0F1804FC5
:104B500008D0914B984205D0904B984202D0904B90
:104B6000984204D14FF68F731A404B881A438D4BED
:104B7000984207D08C4B984204D04FF6FF431A401E
:104B8000CB881A4302808B8883850B880385814BF1
:104B900098420BD0854B984208D08B4B984205D059
:104BA0008A4B984202D08A4B984201D10B7A0386F5
:104BB00001238382704770B5002400220023058CF6
:104BC0004FF6FE7635400584028C8388048B4FF6C1
:104BD0008F752C40B51E2C400D882C43751E2A4025
:104BE0000D892A434D882A436A4DA8420BD06F4D48
:104BF000A84208D0744DA84205D0744DA84202D0F6
:104C0000734DA84213D14FF6F7752A404D892A43B8
:104C10004FF6FB752A408D882A434FF6FF652B40DF
:104C20004FF6FF552B408D892B43CD892B43838035
:104C30000483CD888586028470BD70B5002400226F
:104C40000023058C4FF6EF7635400584028C83886F
:104C5000048B48F6FF752C404FF6FF452C400D881D
:104C60004FF6FF7606EA05252C434FF6DF752A40FE
:104C70000D8906EA05152A434D8806EA05152A43DB
:104C8000444DA84202D0494DA8421DD14FF67F7530
:104C90002A404D894FF6FF7606EA05152A434FF65E
:104CA000BF752A408D8806EA05152A434FF6FF3561
:104CB0002B404FF2FF752B408D8906EA85052B436B
:104CC000CD8906EA85052B4383800483CD8805873B
:104CD000028470BD70B5002400220023058C4FF6BD
:104CE000FF6635400584028C8388848B4FF68F7570
:104CF0002C404FF6FC752C400D882C434FF6FF5589
:104D00002A400D894FF6FF7606EA05252A434D888D
:104D100006EA05252A431F4DA84202D0234DA8428A
:104D20001DD14FF2FF752A404D894FF6FF7606EAF6
:104D300005252A434FF6FF352A408D8806EA0525CA
:104D40002A434EF6FF752B404DF6FF752B408D899B
:104D500006EA05152B43CD8906EA05152B4383800A
:104D60008483CD888587028470BD70B500220023BE
:104D70000024058C4EF6FF7635400584038C84882C
:104D8000828B48F6FF752A404FF6FF452A400D8872
:104D900020E00000002C014000040040000800401A
:104DA000000C00400010004000140040003401409E
:104DB000004C0140005001400054014000180040E8
:104DC000001C004000200040004001400044014021
:104DD000004801404FF6FF7606EA05252A434DF6C6
:104DE000FF752B400D8906EA05352B434D8806EAF1
:104DF00005352B43FA4DA84202D0FA4DA84208D1FE
:104E00004BF6FF752C408D894FF6FF7606EA851527
:104E10002C4384808283CD88A0F84050038470BDE9
:104E2000828B4FF2FF331A408283828B4FF6FF73DF
:104E300003EA01231A4382837047F0B50C461546F6
:104E4000002200210026078C4EF6FF7C07EA0C07A3
:104E50000784828B018C4FF6FF7707EA043640F611
:104E6000FF473A404FF6FF7707EA05273A434FF6E8
:104E7000FF7707EA03373A43D94FB8420ED0D94FEC
:104E8000B8420BD0B0F1804F08D0D74FB84205D010
:104E9000D64FB84202D0D64FB84206D14DF6FF7772
:104EA000394046F48057394305E047F6FF5739400B
:104EB00044F48057394382830184F0BD828B4FF6DE
:104EC000F3731A408283828B0A4382837047F0B562
:104ED0000C461546002200210026078C4FF6FF6C79
:104EE00007EA0C070784828B018C4FF6FF7707EAED
:104EF00004264FF60C773A404FF6FF7707EA031780
:104F00002F433A43B64FB8420ED0B64FB8420BD0FB
:104F1000B0F1804F08D0B44FB84205D0B34FB8427B
:104F200002D0B34FB84206D14FF6FF57394046F48E
:104F30008077394305E04FF2FF57394044F48077DA
:104F4000394382830184F0BD028B4FF2FF331A4054
:104F50000283028B4FF6FF7303EA01231A43028395
:104F60007047F0B50C461546002200210026078C3C
:104F70004FF6EF7C07EA0C070784028B018C4FF693
:104F8000FF7707EA041640F6FF473A404FF6FF77EF
:104F900007EA03373A434FF6FF7707EA05273A4314
:104FA0008F4FB8420ED08F4FB8420BD0B0F1804F28
:104FB00008D08D4FB84205D08C4FB84202D08C4FEC
:104FC000B84206D14FF6DF77394046F01007394333
:104FD00005E04FF65F77394044F01007394302830C
:104FE0000184F0BD028B4FF6F3731A400283028BEB
:104FF0000A4302837047F0B50C4615460022002193
:10500000068C4FF6FE773E400684028B018C4FF6ED
:105010000C7632407E1C06EA03162E433243704E55
:10502000B0420ED06F4EB0420BD0B0F1804F08D0DE
:105030006D4EB04205D06D4EB04202D06C4EB042C3
:1050400006D14FF6FD76314044F00106314305E0CC
:105050004FF6F576314044F0010631430283018476
:10506000F0BD70B505460C465D4885420ED05D48E2
:1050700085420BD0B5F1804F08D05B48854205D002
:105080005A48854202D05A48854200D100E000BF0C
:10509000208850B92389A28861882846FFF7ABFF92
:1050A000E1882846FFF79EFF25E0208804280AD1E2
:1050B0002389A28861882846FFF753FFE1882846A4
:1050C000FFF742FF17E0208808280AD12389A28829
:1050D00061882846FFF7FBFEE1882846FFF7EEFED1
:1050E00009E02389A28861882846FFF7A6FEE188A7
:1050F0002846FFF795FE70BD2DE9F04105460C46A8
:1051000000260127608808B9022600E00026A08852
:10511000012801D1022700E001272088A0B92389B6
:10512000A28861882846FFF766FFE1882846FFF7D6
:1051300059FF23893A4631462846FFF712FFE18896
:105140002846FFF701FF13E02389A28861882846DB
:10515000FFF707FFE1882846FFF7F6FE23893A4666
:1051600031462846FFF747FFE1882846FFF73AFF18
:10517000BDE8F0810A884B881A438B881A43CB8894
:105180001A430B891A434B891A438B891A43A0F897
:10519000442070474FF6FF71818000210180C1805B
:1051A0004180017270470021018041808180C1806F
:1051B000018141818181C18170470021018041804D
:1051C000012181800021C18001817047002101807F
:1051D00041808180C18001814181818170470000CF
:1051E000002C014000340140000400400008004051
:1051F000000C004021B1028842F00102028004E06C
:1052000002884FF6FE731A400280704731B1B0F841
:10521000442042F40042A0F8442005E0B0F84420C5
:10522000C2F30E02A0F8442070471AB183890B43E1
:10523000838102E083898B43838170478182704739
:1052400041EA0203A0F8483070471AB183890B4342
:10525000838102E083898B438381704701894FF604
:10526000F8721140018170470A46002101894FF60A
:105270008F73194011430181704730B504460D46C4
:1052800029462046FFF7F0FF208940F007002081E3
:1052900030BD2DE9F04104460D4616461F46602DEF
:1052A00006D13B46012231462046FFF75AFE05E073
:1052B0003B46012231462046FFF79DFE2946204607
:1052C000FFF7D2FF208940F007002081BDE8F08180
:1052D00030B50C4600210189C9B24FF6FF7505EAC9
:1052E0000325154325432943018130BD2DE9F041B4
:1052F00005460E4617469846002443463A46314630
:105300002846FFF7E5FF2C894FF6F870044044F07B
:1053100007044FF68F70044044F070042C81BDE800
:10532000F081F0B504460D4616461F463B46324610
:1053300029462046FFF7CCFF208940F48040208199
:10534000F0BD0185828270470A46002101884FF630
:105350008F731940114301807047F0B50C46154614
:105360001E460021002200230189028B038C4FF688
:10537000F877394021434FF6FC473A4040F2011795
:105380003A434FF6DD773B404FF6FF7707EA0617C3
:105390002F433B43018102830384F0BD0A46002171
:1053A000018B4FF68F7319401143018370470A46F2
:1053B0000021018B48F6FF7319404FF6FF7303EA93
:1053C00002231943018370470A460021818B4FF65F
:1053D0008F7319401143818370470A460021818BE6
:1053E00048F6FF7319404FF6FF7303EA022319438F
:1053F0008183704721B1028842F08002028004E07C
:1054000002884FF67F731A400280704721B182886C
:1054100042F00402828004E082884FF6FB731A4057
:105420008280704721B1828842F00802828004E0C5
:1054300082884FF6F7731A408280704721B18288C4
:1054400042F00102828004E082884FF6FE731A4027
:10545000828070470A460021018B4FF6F77319408E
:105460001143018370470A460021018B4FF2FF73FD
:1054700019404FF6FF7303EA022319430183704773
:105480000A460021818B4FF6F7731940114381833F
:1054900070470A460021818B4FF2FF7319404FF687
:1054A000FF7303EA02231943818370470A460021F0
:1054B000018B4FF6FB7319401143018370470A4675
:1054C0000021018B4FF6FF3319404FF6FF7303EABB
:1054D00002231943018370470A460021818B4FF64E
:1054E000FB7319401143818370470A460021818B69
:1054F0004FF6FF3319404FF6FF7303EA02231943B7
:10550000818370470A460021018B4FF67F73194053
:105510001143018370470A460021018BC1F30E013C
:105520004FF6FF7303EA02231943018370470A46CB
:105530000021818B4FF67F7319401143818370479F
:105540000A460021818BC1F30E014FF6FF7303EA77
:1055500002231943818370470A460021018C4FF6CC
:10556000FD7319401143018470470A460021018CE4
:105570004FF6F77319401143018470470A46002122
:10558000018C4FF6DF7319404FF6FF7303EA0213E5
:105590001943018470470A460021018C4FF67F733E
:1055A00019404FF6FF7303EA021319430184704751
:1055B0000A460021018C4FF6FF5319404FF6FF7346
:1055C00003EA02231943018470470A460021018C33
:1055D0004FF2FF7319404FF6FF7303EA022319439A
:1055E000018470470A460021018C4DF6FF73194073
:1055F0004FF6FF7303EA023319430184704730B555
:10560000002301248C40A3B2048C9C430484048CAA
:1056100002FA01F5ADB22C43048430BD30B500234D
:1056200004248C40A3B2048C9C430484048C02FAAE
:1056300001F5ADB22C43048430BD70B503460020A3
:1056400000241846183001258D40ACB21D8CA543AE
:105650001D8409B1082909D100EB6100056825F016
:10566000700505600568154305600EE00D1FC5F364
:105670004E052844056825F4E045056005684FF6A9
:10568000FF7606EA02263543056070BD21B1028827
:1056900042F00202028004E002884FF6FD731A40D5
:1056A0000280704721B1028842F00402028004E0C7
:1056B00002884FF6FB731A400280704721B182883E
:1056C00042F08002828004E082884FF67F731A40A5
:1056D0008280704702884FF6F7731A400280028872
:1056E0000A430280704782884FF68F731A40828087
:1056F00082880A438280704702894FF6F8731A4005
:10570000028102890A430281704702894FF67F7342
:105710001A40028102890A430281704781847047DE
:105720008185704781867047018770478187704700
:10573000A0F84010704702884FF6FF431A400280DD
:1057400002880A43028070470146888E70470146EE
:10575000088F70470146888F70470146B1F84000B6
:1057600070470146888C70470146088D7047024695
:105770000020138A0B400BB1012000E0002070478D
:10578000CA430282704730B502460020002300243D
:10579000158A05EA0103958905EA010413B10CB1E4
:1057A000012000E0002030BDCA43028270470000A3
:1057B00010B50446FB48844209D101218803FFF754
:1057C0009FF800214FF48040FFF79AF832E0F64846
:1057D000844209D101214804FFF79FF800214FF4CA
:1057E0000030FFF79AF825E0F048844209D1012102
:1057F0008804FFF792F800214FF48020FFF78DF81E
:1058000018E0EB48844209D10121C804FFF785F86C
:1058100000214FF40020FFF780F80BE0E5488442B8
:1058200008D101210805FFF778F800214FF4801016
:10583000FFF773F810BD2DE9F04786B005460E4618
:105840000024A24600BFA1460027B08900B100BFD6
:105850002F462C8A4CF6FF700440F08804432C82BB
:10586000AC894EF6F3100440B08831890843718941
:1058700008430443AC81AC8A4FF6FF400440B08932
:105880000443AC8201A8FEF7B4FFC648874202D1A8
:10589000DDF810A001E0DDF80CA0A88900F40040BC
:1058A00040B10AEBCA0000EB0A1031684900B0FBB6
:1058B000F1F807E00AEBCA0000EB0A103168890032
:1058C000B0FBF1F86420B8FBF0F00401200964217A
:1058D00001FB1089A88900F4004040B1322000EBA0
:1058E000C900B0FBF1F000F00700044308E03220EB
:1058F00000EB09106421B0FBF1F000F00F0004434D
:105900002C8106B0BDE8F0874FF4165101600021EC
:105910008180C18001810C214181002181817047FA
:1059200010B502460020108A4FF2FF0318400B8882
:105930004C8823438C882343CC882343184310820C
:1059400010BD0021018041808180C180704721B15C
:10595000828942F40052828104E082894DF6FF730D
:105960001A4082817047F0B50346002400260025C6
:10597000002040F66A17B94200D100BF1846C1F3B3
:10598000421401F01F06012707FA06F5012C01D188
:105990000C3004E0022C01D1103000E014301AB1B8
:1059A00007682F43076002E00768AF430760F0BD58
:1059B0001AB1838A0B43838202E0838A8B438382FA
:1059C0007047028A4FF6F0731A400282028A0A4335
:1059D0000282704782894FF2FF731A408281828966
:1059E0000A438281704721B1828942F0020282819A
:1059F00004E082894FF6FD731A4082817047028A63
:105A00004FF6DF731A400282028A0A43028270470D
:105A100021B1028A42F48042028204E0028A4BF6FB
:105A2000FF731A4002827047C1F3080282807047F8
:105A300001468888C0F308007047818941F0010160
:105A400081817047028BD2B20283028B42EA01222B
:105A500002837047028B02F47F420283028B0A4367
:105A60000283704721B1828A42F02002828204E0E0
:105A7000828A4FF6DF731A408282704721B1828A90
:105A800042F01002828204E0828A4FF6EF731A40DD
:105A90008282704721B1828A42F00802828204E049
:105AA000828A4FF6F7731A408282704721B1828949
:105AB00042F40042828103E08289C2F30E028281B5
:105AC000704721B1828A42F40062828204E0828AB5
:105AD0004FF2FF731A4082827047828A4FF6FB733F
